S00F0000676174657761792E7372656323
S11300000C9446000C9463000C9463000C946300FD
S11300100C9463000C9463000C9474040C946300BB
S11300200C9463000C9463000C9463000C946300C0
S11300300C9431010C9463000C9463000C946300E1
S11300400C9463000C9463000C9463000C946300A0
S11300500C9463000C9463000C9463000C94630090
S11300600C9463000C9463000C9463000C94630080
S11300700C9463000C9463000C9463000C94630070
S11300800C9463000C9463000C94630011241FBE51
S1130090CFEFD0E1DEBFCDBF11E0A0E0B1E0E6E4F8
S11300A0FCE002C005900D92A430B107D9F721E01D
S11300B0A4E0B1E001C01D92A435B207E1F70E94AB
S11300C0D5050C9421060C940000662331F0E2E679
S11300D0F0E090819064908305C0E2E6F0E09081C6
S11300E09F7B9083882334F4E2E6F0E09081926071
S11300F0908305C0E2E6F0E090819D7F908386FFC7
S113010006C0E2E6F0E090819460908305C0E2E6E8
S1130110F0E090819B7F908385FF06C0E2E6F0E0EB
S113012090819860908305C0E2E6F0E09081977F2B
S1130130908384FF06C0E2E6F0E0908190619083B2
S113014005C0E2E6F0E090819F7E90830000E2E645
S1130150F0E090819062908300C000C090819F7D08
S1130160908383FF04C090819260908305C0E2E68F
S1130170F0E090819D7F908382FF06C0E2E6F0E08C
S113018090819460908305C0E2E6F0E090819B7FCB
S1130190908381FF06C0E2E6F0E09081986090834E
S11301A005C0E2E6F0E09081977F908380FF06C06F
S11301B0E2E6F0E090819061908305C0E2E6F0E031
S11301C090819F7E90830000E2E6F0E0908190624F
S11301D0908300C000C090819F7D90839081926045
S11301E090839081946090839081986090839081B3
S11301F090619083611109C0843038F48FEC9CE0E5
S11302000197F1F700C0000008959AE69A95F1F776
S113021000C0089587B3807F87BB87B3876087BB9F
S113022080E58DB981E08EB908958FB9779BFECFB3
S11302308FB108958EB58A608EBD83E08BBD88EE44
S11302408ABD789487B7806187BF0895F8946091D8
S11302505001709151018091520190915301789411
S113026008951F920F920FB60F9211248F939F93AC
S1130270AF93BF938091500190915101A09152018D
S1130280B09153010196A11DB11D8093500190932B
S11302905101A0935201B0935301BF91AF919F912B
S11302A08F910F900FBE0F901F90189580910E01A3
S11302B0882339F09091100181E09F3F19F480E088
S11302C0089580E0089580910401811101C078941B
S11302D00895C098F8940895C09A0E9463010895FF
S11302E0CF93C82F0E9469018C2F8F770E9415012C
S11302F080E00E941501C82F0E946C018C2FCF91C1
S11303000895CF93DF93D82FC62F0E9469018D2FB4
S113031080680E9415018C2F0E9415010E946C01B7
S1130320DF91CF910895682F89E30E948101089598
S1130330682F80E30E9481010895CF93C82F809194
S11303400101813009F4C69581E10E947001807E2B
S1130350682F6C2B81E10E948101CF910895813037
S113036049F46DE58AE50E9481016CE78CE50E9401
S11303708101089565E58AE50E94810160E78CE5C5
S11303800E9481010895CF9390910201981709F476
S113039057C0C82F823069F128F48823F1F18130E5
S11303A091F14EC08330A1F0843009F049C081E05E
S11303B00E947001837E682F6C6081E00E9481013D
S11303C080910101882389F181E00E94AF012DC051
S11303D081E00E947001837E682F606181E00E9449
S11303E0810180910101882301F180E00E94AF0125
S11303F01CC081E00E947001837E682F686081E0E8
S11304000E94810112C081E00E947001837E682FE6
S1130410646081E00E94810108C081E00E94700153
S1130420682F637E81E00E94810190910201911105
S113043005C087E20E9470018823BCF7C0930201C3
S1130440CF91089580930101811105C06FE083E18C
S11304500E9481010895813051F481E10E9470016C
S11304608F71682F606681E10E9481010895609117
S11304700001606881E10E9481010895813049F49E
S113048061E083E20E94810183E20E94700181FFA6
S1130490FBCF84E20E94700190E0919581959109CF
S11304A0959587950895CF9380910201833079F4CF
S11304B0C0910F01C1110DC080E00E943E02863A36
S11304C09F4F44F481E00E94C301C1E003C0C0E037
S11304D001C0C0E08C2FCF910895109212011092A8
S11304E011011092100110920F0110920E0110923E
S11304F00D0110920C0110920B0188E20E94700110
S113050082FF08C08DE30E947001682F64608DE350
S11305100E94810160E485E20E94810183E00E94DF
S1130520C3010895F89480910201833061F48091AD
S11305300F0181110DC007C0789480E008950E94D6
S11305406D0280E00895809102018330C1F7F4CFF9
S113055081E00E94C30181E008950F931F93CF931C
S1130560DF938C0181E00E94C3010115110589F01C
S11305700E9469018EEB0E941501E801005F1F4F84
S113058089910E941501C017D107D1F70E946C010F
S113059008C08DE30E947001682F6E7F8DE30E9476
S11305A08101DF91CF911F910F910895FF920F93D5
S11305B01F93CF93DF93CDB7DEB7AE970FB6F89402
S11305C0DEBF0FBECDBFF82E062F8EE2FE013196A0
S11305D0DF01982F1D929A95E9F791E0998324E021
S11305E02A8392E09B8393E09D833DE03E832F83A7
S11305F025E0288729879A8796E09B8793E39C8741
S113060027E02D879CE69E8798E09F8730E4388B0F
S113061099E0998B99E19B8B92E49C8B45E24D8BFD
S11306203E8B36E23F8B288F28E2298F20E12A8FE8
S113063029E22B8F2CED2C8F8D8F88E88E8F8FE203
S11306408F8F8DE288A380E389A327E32BA320E97E
S11306502CA328E32DA39EA39CE39FA39FE898A724
S11306609DE399A792E19AA79FE69BA78CA78FEF9A
S11306708DA76AA30E940A01A69AB89AC09A1598EF
S11306801D9804C06AEA8FE20E9481018FE20E94F1
S113069070018A3AB9F704C065E58FE20E948101CE
S11306A08FE20E9470018535B9F789818F3FE9F0A7
S11306B020E030E010E0220F331FE1E0F0E0EC0F27
S11306C0FD1FE20FF31F61810E9481011F5F212F33
S11306D030E0F901EE0FFF1FA1E0B0E0AC0FBD1F49
S11306E0EA0FFB1F80818F3F31F780E090E00E948A
S11306F0AD02809101010E94220281E00E94C301A7
S113070087E20E9470018823DCF78AB78C608ABF75
S113071099B7906299BF109204010E941A01F09255
S11307200A018F2D0E949301802F0E949801AE969A
S11307300FB6F894DEBF0FBECDBFDF91CF911F91EE
S11307400F91FF900895EF92FF920F931F93CF9311
S1130750DF93C82F7B01142FD22F81E00E94C301A5
S113076087E20E9470018823DCF760E085E20E9442
S113077081011E3308F01DE3013021F0D13021F452
S1130780D0E403C0D0E801C0D0E00E94690180E851
S11307900E94150183E0810F0E9415018C2F0E9495
S11307A0150180910A010E9415018D2F0E941501E7
S11307B0112371F0E7011150012F10E00F5F1F4F5B
S11307C00E0D1F1D89910E941501C017D107D1F785
S11307D00E946C0184E00E94C3010E942601609380
S11307E005017093060180930701909308010D9908
S11307F015C00E9426010091050110910601209167
S1130800070130910801DC01CB01801B910BA20B85
S1130810B30B883E9340A105B10548F381E00E94E3
S1130820C301DF91CF911F910F91FF90EF90089535
S11308308F929F92AF92BF92DF92EF92FF920F93AB
S11308401F93CF93DF937C01D62E10920E0110914B
S11308501101C0910B01D0910C018DE30E94700134
S1130860682F64608DE30E9481010E9426016093D9
S1130870050170930601809307019093080102C05B
S11308800E9492020E945302811115C00E94260107
S11308908090050190900601A0900701B090080196
S11308A0DC01CB0188199909AA09BB09883E934048
S11308B0A105B10528F31093110101E020E04D2DAD
S11308C0B701812F0E94A303D0930C01C0930B01A5
S11308D0DF91CF911F910F91FF90EF90DF90BF9028
S11308E0AF909F908F9008951F920F920FB60F9222
S11308F011240F931F932F933F934F935F936F9301
S11309007F938F939F93AF93BF93CF93EF93FF9373
S113091081E08093040180910201833009F075C065
S113092088E20E94700182FF70C0AE9A8FE19EE45B
S11309300197F1F700C00000AE9881E00E94C30166
S11309400E94690180E00E94150180E00E94150167
S113095080930F0180910F01833418F082E4809317
S11309600F0180E00E94150180931001809109011C
S113097081110AC09091100180910A01981721F009
S1130980809110018F3F21F480910F01833038F45E
S113099010920F010E946C010E946D023FC0809171
S11309A00F0183508093120180E00E94150180930F
S11309B0110180E00E941501982F907890930D0109
S11309C0807480930E0180911201882379F0C0E035
S11309D00C2F10E080E00E941501F801ED5EFE4F3F
S11309E08083CF5F80911201C81790F38091120128
S11309F08D3330F4E0911201F0E0ED5EFE4F108291
S1130A000E946C0183E00E94C30180E00E943E02C8
S1130A1090930C0180930B0110920401FF91EF91CC
S1130A20CF91BF91AF919F918F917F916F915F9182
S1130A304F913F912F911F910F910F900FBE0F90E7
S1130A401F90189560E00E946500089581E00E945F
S1130A502205089561E00E9465000895CF93DF9315
S1130A60EC012196FC018081882329F00E942A054B
S1130A7089918111FBCFDF91CF910895E1E6F0E0F8
S1130A8080818062808380818064808380818260B1
S1130A90808380818460808380818860808380817A
S1130AA080618083E2E6F0E080818F7D80838081B5
S1130AB08F7B808380818260808380818460808357
S1130AC08081886080838081806180838FE295E764
S1130AD00197F1F700C0000080818D7F80838081C1
S1130AE08B7F8083000080818062808300C000C08F
S1130AF080818F7D808387E090E20197F1F700C0C9
S1130B00000080818062808300C000C080818F7D6E
S1130B10808387EC90E00197F1F700C000008081AA
S1130B208062808300C000C080818F7D80839AE6CC
S1130B309A95F1F700C080818F7E808300008081C8
S1130B408062808300C000C080818F7D80838AE6BC
S1130B508A95F1F700C080818F7E808300008081B8
S1130B608062808300C000C080818F7D808300C04C
S1130B7000C08081826080830000808180628083E5
S1130B8000C000C080818F7D80839AE69A95F1F73A
S1130B9000C088E00E9422050E94260586E00E948B
S1130BA022058CE00E9422050895CF93DF93CDB7F0
S1130BB0DEB760970FB6F894DEBF0FBECDBF61E21B
S1130BC084E00E94D60281E00E9422028EE10E940B
S1130BD09D0180E090E00E94AD020E943E050E94CB
S1130BE02605CE0101967C018E010F5E1F4FC82E93
S1130BF0DF2C0E9492028823E1F38FE19EE40197A7
S1130C00F1F700C000000E9456018823B9F060E0AB
S1130C1083E091E00E94180411C0DF01AE19BF09FE
S1130C20AD5EBE4F2C912193E017F107B1F70E94FE
S1130C3026058C2D9D2D0E942E05DBCFEC2DFD2D40
S1090C40ECCFF894FFCF95
S1070C461F01010085
S9030000FC
