S00C00006E6F64652E7372656372
S11300000C9446000C9463000C9463000C946300FD
S11300100C9463000C9463000C94AE030C94630082
S11300200C9463000C9463000C9463000C946300C0
S11300300C948C000C9463000C9463000C94630087
S11300400C9463000C9463000C9463000C946300A0
S11300500C9463000C9463000C9463000C94630090
S11300600C9463000C9463000C9463000C94630080
S11300700C9463000C9463000C9463000C94630070
S11300800C9463000C9463000C94630011241FBE51
S1130090CFEFD0E1DEBFCDBF11E0A0E0B1E0EAEFE9
S11300A0F8E002C005900D92AC30B107D9F721E019
S11300B0ACE0B1E001C01D92AC35B207E1F70E949B
S11300C05C040C947B040C94000087B3807F87BB92
S11300D087B3876087BB80E58DB981E08EB90895C9
S11300E08FB9779BFECF8FB108958EB58A608EBD90
S11300F083E08BBD88EE8ABD789487B7806187BF23
S11301000895F894609158017091590180915A01B1
S113011090915B01789408951F920F920FB60F92FD
S113012011248F939F93AF93BF9380915801909123
S11301305901A0915A01B0915B010196A11DB11D15
S11301408093580190935901A0935A01B0935B0195
S1130150BF91AF919F918F910F900FBE0F901F9001
S1130160189580910C01811101C078940895C0986C
S1130170F8940895C09A0E94B1000895CF93C82FAF
S11301800E94B7008C2F8F770E94700080E00E943D
S11301907000C82F0E94BA008C2FCF910895CF937E
S11301A0DF93D82FC62F0E94B7008D2F80680E943E
S11301B070008C2F0E9470000E94BA00DF91CF91D2
S11301C00895682F89E30E94CF000895682F80E383
S11301D00E94CF000895CF93C82F809101018130F0
S11301E009F4C69581E10E94BE00807E682F6C2BC5
S11301F081E10E94CF00CF910895813049F46DE5EB
S11302008AE50E94CF006CE78CE50E94CF00089538
S113021065E58AE50E94CF0060E78CE50E94CF0087
S11302200895CF9390910201981709F457C0C82FED
S1130230823069F128F48823F1F1813091F14EC0C4
S11302408330A1F0843009F049C081E00E94BE00EF
S1130250837E682F6C6081E00E94CF008091010151
S1130260882389F181E00E94FD002DC081E00E9475
S1130270BE00837E682F606181E00E94CF00809180
S11302800101882301F180E00E94FD001CC081E08F
S11302900E94BE00837E682F686081E00E94CF00C8
S11302A012C081E00E94BE00837E682F646081E0FA
S11302B00E94CF0008C081E00E94BE00682F637EC8
S11302C081E00E94CF0090910201911105C087E264
S11302D00E94BE008823BCF7C0930201CF91089509
S11302E080930101811105C06FE083E10E94CF007A
S11302F00895813051F481E10E94BE008F71682F0E
S1130300606681E10E94CF000895609100016068F9
S113031081E10E94CF000895813049F461E083E2D5
S11303200E94CF0083E20E94BE0081FFFBCF84E2E3
S11303300E94BE0090E091958195910995958795CD
S11303400895CF9380910201833079F4C09117010D
S1130350C1110DC080E00E948C01863A9F4F44F485
S113036081E00E941101C1E003C0C0E001C0C0E00F
S11303708C2FCF91089510921A01109219011092A6
S11303801801109217011092160110921501109283
S113039014011092130188E20E94BE0082FF08C07B
S11303A08DE30E94BE00682F64608DE30E94CF003D
S11303B060E485E20E94CF0083E00E941101089569
S11303C0F89480910201833061F4809117018111C6
S11303D00DC007C0789480E008950E94BB0180E0BE
S11303E00895809102018330C1F7F4CF81E00E9427
S11303F0110181E008950F931F93CF93DF938C0134
S113040081E00E9411010115110589F00E94B700D5
S11304108EEB0E947000E801005F1F4F89910E94DB
S11304207000C017D107D1F70E94BA0008C08DE34D
S11304300E94BE00682F6E7F8DE30E94CF00DF9183
S1130440CF911F910F910895FF920F931F93CF9314
S1130450DF93CDB7DEB7AE970FB6F894DEBF0FBE0D
S1130460CDBFF82E062F8EE2FE013196DF01982FC4
S11304701D929A95E9F791E0998324E02A8392E00A
S11304809B8393E09D833DE03E832F8325E0288773
S113049029879A8796E09B8793E39C8727E02D879B
S11304A09CE69E8798E09F8730E4388B99E0998B8F
S11304B099E19B8B92E49C8B45E24D8B3E8B36E21B
S11304C03F8B288F28E2298F20E12A8F29E22B8F66
S11304D02CED2C8F8D8F88E88E8F8FE28F8F8DE29D
S11304E088A380E389A327E32BA320E92CA328E393
S11304F02DA39EA39CE39FA39FE898A79DE399A7A0
S113050092E19AA79FE69BA78CA78FEF8DA76AA37A
S11305100E946500A69AB89AC09A15981D9804C0BE
S11305206AEA8FE20E94CF008FE20E94BE008A3AFC
S1130530B9F704C065E58FE20E94CF008FE20E9404
S1130540BE008535B9F789818F3FE9F020E030E0BE
S113055010E0220F331FE1E0F0E0EC0FFD1FE20F8B
S1130560F31F61810E94CF001F5F212F30E0F9014A
S1130570EE0FFF1FA1E0B0E0AC0FBD1FEA0FFB1FA1
S113058080818F3F31F780E090E00E94FB018091F1
S113059001010E94700181E00E94110187E20E9422
S11305A0BE008823DCF78AB78C608ABF99B7906253
S11305B099BF10920C010E947500F09212018F2DC8
S11305C00E94E100802F0E94E600AE960FB6F894D8
S11305D0DEBF0FBECDBFDF91CF911F910F91FF9072
S11305E00895EF92FF920F931F93CF93DF93C82F39
S11305F07B01142FD22F81E00E94110187E20E9417
S1130600BE008823DCF760E085E20E94CF001E3341
S113061008F01DE3013021F0D13021F4D0E403C00F
S1130620D0E801C0D0E00E94B70080E80E947000CA
S113063083E0810F0E9470008C2F0E9470008091D3
S113064012010E9470008D2F0E947000112371F01E
S1130650E7011150012F10E00F5F1F4F0E0D1F1DFA
S113066089910E947000C017D107D1F70E94BA0087
S113067084E00E9411010E94810060930D01709337
S11306800E0180930F01909310010D9915C00E94E3
S1130690810000910D0110910E0120910F01309104
S11306A01001DC01CB01801B910BA20BB30B883E24
S11306B09340A105B10548F381E00E941101DF9147
S11306C0CF911F910F91FF90EF900895DF92EF92D9
S11306D0FF920F931F93CF93DF93F82EEB01E42E39
S11306E0D22E8DE30E94BE00682F64608DE30E94C9
S11306F0CF000E94810060930D0170930E018093DE
S11307000F019093100102C00E94E0010E94A10118
S1130710811115C00E94810000910D0110910E01FC
S113072020910F0130911001DC01CB01801B910B52
S1130730A20BB30B883E9340A105B10528F300E05A
S11307402D2D4E2DBE018F2D0E94F102DF91CF91F0
S11307501F910F91FF90EF90DF9008951F920F92D9
S11307600FB60F9211240F931F932F933F934F9320
S11307705F936F937F938F939F93AF93BF93CF9325
S1130780EF93FF9381E080930C0180910201833009
S113079009F075C088E20E94BE0082FF70C0AE9A64
S11307A08FE19EE40197F1F700C00000AE9881E06C
S11307B00E9411010E94B70080E00E94700080E056
S11307C00E9470008093170180911701833418F000
S11307D082E48093170180E00E94700080931801E6
S11307E08091110181110AC0909118018091120128
S11307F0981721F0809118018F3F21F480911701FF
S1130800833038F4109217010E94BA000E94BB0191
S11308103FC080911701835080931A0180E00E94A9
S113082070008093190180E00E947000982F9078E6
S11308309093150180748093160180911A01882386
S113084079F0C0E00C2F10E080E00E947000F80105
S1130850E55EFE4F8083CF5F80911A01C81790F345
S113086080911A018D3330F4E0911A01F0E0E55ED5
S1130870FE4F10820E94BA0083E00E94110180E0C2
S11308800E948C01909314018093130110920C0127
S1130890FF91EF91CF91BF91AF919F918F917F91F4
S11308A06F915F914F913F912F911F910F910F90F5
S11308B00FBE0F901F90189561E283E00E942402FE
S11308C081E00E9470018EE10E94EB0080E090E0E4
S11308D00E94FB0120E048E063E071E084E00E94B4
S11308E066032FEF83ED90E3215080409040E1F7C1
S10D08F000C00000EFCFF894FFCF22
S10F08FA1F0101417765736F6D652100DB
S9030000FC
